:100000000C9451070C949A070C949A070C949A0735
:100010000C949A070C949A070C949A070C949A07DC
:100020000C949A070C949A070C9446100C941C118B
:100030000C94941F0C949A070C949A070C949A07AA
:100040000C949A070C949A070C949A070C949A07AC
:100050000C949A070C9408200C949A070C949A0715
:100060000C949A070C949A070C949A070C949A078C
:100070000C949A070C949A070C949A070C949A077C
:100080000C949A070C949A070C949A070C949A076C
:100090000C949A070C949A0756085B086008650848
:1000A0006A086F08740879088D11AF119D12AF119D
:1000B0009D12F41117129D126C127F12F915F91589
:1000C000261626168116BD16B518B518D516B518FC
:1000D000D017D0178B18B518B518A118000000005C
:1000E000000000000000000000000000F1A1F1A2EB
:1000F000F1A3F1A4F1A5F1A6F1A7028A048A088A66
:10010000218A228A248A288A00C001C002C003C032
:1001100004C005C006C007C029003A3B3C3D3E3F35
:10012000404142434445464748351E1F2021222373
:10013000242526272D2E2A494A4B2B141A08151739
:100140001C180C12132F30314C4D4E390004160779
:10015000090A0B0D0E0F33342800000000E11D1BAF
:100160000619051110363738E100005200E0E3E2CD
:100170000000002C0000E200E376E050514F010047
:10018000010101010101010101010101010101015F
:10019000010101010101010101010101010101014F
:1001A000010101010101010101010101010101013F
:1001B0000101000101010101010101010101010031
:1001C0000000000101010101010101010101010023
:1001D0000001000101010000000100000100010117
:1001E0000101010101000101010101010101010100
:1001F00001010101010101010101010101010101EF
:1002000001010101010101010101010101010101DE
:1002100001010101010101010001010101010101CF
:1002200001010101010000000001010101010101C2
:1002300001010101010000010001010100000001B4
:1002400000000100010101010101010001010101A2
:10025000010101010101010101010101010101018E
:10026000010101010101010101010101010101017E
:10027000010101010101010101010101010100016F
:100280000101010101010101010101000000000162
:100290000101010101010101010101000001000151
:1002A0000101000000010000010001010101010144
:1002B000010001010101010101010101010101012F
:1002C000010101010101010101010101010101011E
:1002D000010101010101010101010101010101010E
:1002E00001010101000101010101010101010101FF
:1002F00001000000000101010101010101010101F2
:1003000001000001000101010000000100000100E6
:1003100001010101010101000101010101010101CE
:1003200001010101010101010101010101010101BD
:1003300001010101010101010101010101010101AD
:10034000010101010101010101010001010101019E
:100350000101010101010100000000010101010191
:100360000101010101010100000100010101000082
:100370000001000001000101010101010100010172
:10038000010101010101010101010101010101015D
:10039000010101010101010101010101010101014D
:1003A000010101010101010101010101010101013D
:1003B0000001010101010101010101010100000031
:1003C0000001010101010101010101010100000120
:1003D0000001010100000001000001000101010114
:1003E00001010100010101010101010101010101FE
:1003F00001010101010101010101010101010101ED
:1004000001010101010101010101010101010101DC
:1004100001010101010100010101010101010101CD
:1004200001010100000000010101010101010101C0
:1004300001010100000100010101000000010000B4
:1004400001000101010101010A002530313662007D
:100450003A200025303258000A722F6320303132A2
:10046000333435363738394142434445460A000A69
:10047000002530325800626F756E6365213A2000A6
:100480005B735D004B6579626F61726420737461A8
:1004900072742E0A0055534220636F6E6669677549
:1004A0007265642E0A005B575D005B535D005B5212
:1004B0005D005B445D005B435D002003430075000D
:1004C000730074006F006D0020004B006500790020
:1004D00062006F0061007200640000000803740095
:1004E0006D006B0000000403090409028D00050182
:1004F00000A03209040000010301010009211101DB
:1005000000012240000705810308000A09040100D8
:100510000103010200092111010001224D0007051C
:10052000820308000A0904020001030000000921F7
:10053000110100012236000705830308000A09049F
:100540000300020300000009211101000122220022
:1005500007058403200001070504032000010904A6
:1005600004000103000000092111010001223900EB
:10057000070585031000011201100100000008EDBD
:10058000FE606001000102000105010906A10105EC
:100590000719E029E7150025019508750181020575
:1005A00008190129059505750191029501750391B9
:1005B0000105071900297715002501957875018136
:1005C00002C00631FF0974A1010975150026FF005C
:1005D0009520750881020976150026FF0095207583
:1005E000089102C005010980A101850216010026BB
:1005F000B7001A01002AB700751095018100C005E7
:100600000C0901A1018503160100269C021A0100B4
:100610002A9C02751095018100C005010902A10103
:100620000901A100050919012905150025019505F4
:1006300075018102950175038101050109300931B8
:100640001581257F95027508810609381581257F5A
:10065000950175088106050C0A38021581257F95DC
:100660000175088106C0C005010906A10105071929
:10067000E029E715002501950875018102950175AE
:100680000881010508190129059505750191029553
:1006900001750391010507190029FF150026FF00C8
:1006A000950675088100C00A002530325820006B7D
:1006B0006579626F6172645F7265706F72743A20FF
:1006C000004C45443A20253032580A0064656C5F7E
:1006D0006B65795F6269743A2063616E2774206488
:1006E000656C3A20253032580A006164645F6B659E
:1006F000795F6269743A2063616E27742061646473
:100700003A20253032580A00646F6E652E0A006266
:100710006F6F746D61676963207363616E3A202E39
:100720002E2E2000290A002575002F002575005D5A
:100730002800256400200025640020002564002096
:10074000002564007C0025303258006D6F7573659C
:100750006B6579205B62746E7C78207920762068E6
:100760005D287265702F61636C293A205B006D6BA8
:100770005F776865656C5F74696D655F746F5F6DE9
:100780006178203D2025640A006D6B5F77686565A0
:100790006C5F6D61785F7370656564203D202564D2
:1007A0000A006D6B5F74696D655F746F5F6D617872
:1007B000203D2025640A006D6B5F6D61785F73706A
:1007C000656564203D2025640A006D6B5F696E7469
:1007D000657276616C203D2025640A006D6B5F6454
:1007E000656C6179203D2025640A006D6B5F776838
:1007F00065656C5F74696D655F746F5F6D617820AE
:100800003D2025640A006D6B5F776865656C5F6DE0
:1008100061785F7370656564203D2025640A006D12
:100820006B5F74696D655F746F5F6D6178203D20EB
:1008300025640A006D6B5F6D61785F737065656438
:10084000203D2025640A006D6B5F696E74657276C9
:10085000616C203D2025640A006D6B5F64656C61EE
:1008600079203D2025640A000A00257500363A20CB
:10087000776865656C5F74696D655F746F5F6D61E6
:10088000783A20000A00257500353A2077686565BA
:100890006C5F6D61785F73706565643A20000A0073
:1008A000257500343A2074696D655F746F5F6D6102
:1008B000783A20000A00257500333A206D61785F90
:1008C00073706565643A20000A00257500323A208D
:1008D000696E74657276616C286D73293A20000A1E
:1008E00000257500313A2064656C6179282A313021
:1008F0006D73293A20000A092D2056616C756573C5
:10090000202D0A004D3E004D25643E20003F00731F
:1009100065742064656661756C740A00433E20004E
:1009200077686572652064656C74613A20637572DE
:10093000736F723D25642C20776865656C3D256476
:100940000A53656520687474703A2F2F656E2E7790
:10095000696B6970656469612E6F72672F77696B67
:10096000692F4D6F7573655F6B6579730A000A09AE
:100970002D204D6F7573656B6579202D0A455343A6
:100980002F713A09717569740A313A0964656C61AD
:1009900079282A31306D73290A323A09696E7465F3
:1009A0007276616C286D73290A333A096D61785F3C
:1009B00073706565640A343A0974696D655F746FB4
:1009C0005F6D61780A353A09776865656C5F6D61BE
:1009D000785F73706565640A363A09776865656C97
:1009E0005F74696D655F746F5F6D61780A0A703A54
:1009F000097072696E742076616C7565730A643A69
:100A0000097365742064656661756C74730A75702A
:100A10003A092B310A646F776E3A092D310A7067F3
:100A200075703A092B31300A7067646F776E3A0936
:100A30002D31300A0A7370656564203D2064656C51
:100A40007461202A206D61785F7370656564202A67
:100A50002028726570656174202F2074696D655F50
:100A6000746F5F6D6178290A003F004D3E2000439E
:100A70003E20004C25640A000A092D20436F6E7346
:100A80006F6C65202D0A4553432F713A09717569C2
:100A9000740A6D3A096D6F7573656B65790A000AA2
:100AA000092D204D61676963202D0A643A09646548
:100AB0006275670A783A096465627567206D6174CA
:100AC0007269780A6B3A096465627567206B6579AB
:100AD000626F6172640A6D3A096465627567206DC0
:100AE0006F7573650A763A0976657273696F6E0A77
:100AF000733A097374617475730A633A09636F6EAC
:100B0000736F6C65206D6F64650A302D343A096C23
:100B100061796572302D34284631302D4634290AEA
:100B2000506175733A09626F6F746C6F61646572BE
:100B30000A653A09656570726F6D0A6E3A094E4B27
:100B4000524F0A000A002575002E6E6B726F3A2014
:100B5000000A002575002E737761705F6261636B18
:100B6000736C6173685F6261636B73706163653A34
:100B700020000A002575002E737761705F6772612F
:100B800076655F6573633A20000A002575002E6E56
:100B90006F5F6775693A20000A002575002E73772C
:100BA00061705F72616C745F726775693A20000AE8
:100BB000002575002E737761705F6C616C745F6CDB
:100BC0006775693A20000A002575002E636170730D
:100BD0006C6F636B5F746F5F636F6E74726F6C3A90
:100BE00020000A002575002E737761705F636F6EB9
:100BF00074726F6C5F636170736C6F636B3A20002B
:100C00000A0025303258006B65796D61705F636F43
:100C10006E6669672E7261773A20000A00257500BA
:100C20002E6D6F7573653A20000A002575002E6BD6
:100C30006579626F6172643A20000A002575002EA2
:100C40006D61747269783A20000A002575002E657E
:100C50006E61626C653A20000A00253032580064EB
:100C6000656275675F636F6E6669672E7261773A5A
:100C700020000A0025750064656661756C745F6C00
:100C8000617965723A20003F004E4B524F3A206F17
:100C900066660A004E4B524F3A206F6E0A00746926
:100CA0006D65725F72656164333228293A202530A0
:100CB000346C580A006B6579626F6172645F6E6BA9
:100CC000726F3A2025580A006B6579626F61726411
:100CD0005F69646C653A2025580A006B6579626F1C
:100CE0006172645F70726F746F636F6C3A20255825
:100CF0000A00686F73745F6B6579626F6172645F1D
:100D00006C65647328293A2025580A000A092D20A9
:100D1000537461747573202D0A004743433A20349D
:100D20002E392E32204156522D4C4942433A203121
:100D30002E382E3073766E204156525F4152434812
:100D40003A2061767235310A004F5054494F4E5364
:100D50003A204C55464120424F4F544D414749435C
:100D6000204D4F5553454B45592045585452414B02
:100D7000455920434F4E534F4C4520434F4D4D4115
:100D80004E44204E4B524F20343039360A004255E3
:100D9000494C443A20756E6B6E6F776E2028323363
:100DA0003A35313A3134204D6172202035203230CD
:100DB0003137290A005649443A203078464545449F
:100DC00028746D6B29205049443A203078363036EB
:100DD0003028437573746F6D204B6579626F617253
:100DE0006429205645523A203078303030310A009C
:100DF000444553433A20437573746F6D204B6579B6
:100E0000626F6172640A000A092D20566572736967
:100E10006F6E202D0A000A6D6F7573653A206F663C
:100E2000660A000A6D6F7573653A206F6E0A000AD4
:100E30006B6579626F6172643A206F66660A000AB8
:100E40006B6579626F6172643A206F6E0A000A6D99
:100E500061747269783A206F66660A000A6D61747F
:100E60007269783A206F6E0A000A64656275673AA3
:100E7000206F6E0A000A64656275673A206F6666C5
:100E80000A000A0A626F6F746C6F616465722E2EBD
:100E90002E2000433E20006565636F6E6669673AE9
:100EA0000A0011241FBECFEFD0E2DEBFCDBF04B6D3
:100EB00003FE27C08091100290911102A0911202AE
:100EC000B09113028730904BA740B04BD1F41092F1
:100ED000100210921102109212021092130214BE0C
:100EE00084B7877F84BF0FB6F894A895809160007F
:100EF000886180936000109260000FBEE0E0F8EF20
:100F0000099511E0A0E0B1E0E6EBF9E500E00BBFE8
:100F100002C007900D92A833B107D9F722E0A8E3E9
:100F2000B1E001C01D92A031B207E1F70E94760D39
:100F30000C94D92C0C940000FF93EF93E0913801AE
:100F4000F0913901309709F00995EF91FF910895DB
:100F5000FC018591803011F0EFDFFBCF0895FF2772
:100F6000E0E230E247FF0CC0419597FF09C0EDE297
:100F70006095709580959095611D711D811D911DE5
:100F800027FF02C0219530E350E2AA27660F771FA2
:100F9000881F991FAA1FA41710F0A41B63955A95C8
:100FA000A9F7AA3008F0A95FA05DAF93F39561158A
:100FB00071058105910541F7ED3211F4EF93F39539
:100FC000F21718F43F93F395FBCF8F91B5DFFA95A5
:100FD000E1F70895E991F9918591803021F085320A
:100FE00019F0AADFF9CF089520E0E8945591553221
:100FF000C1F3503311F4689455915A3348F4505367
:1010000090F3220F022E220F220F200D250FF4CF76
:101010000EF4219589919991533619F3533729F19B
:10102000533559F1BC0188279927E8945C3621F49F
:101030008991999168945591543639F446EF7EF030
:1010400077FF0DC08FEF9FEF0AC055374AE039F0A8
:10105000583540E121F0523642E009F00895FF93FF
:10106000EF937DDFEF91FF91B7CFFF93EF93FC01FB
:1010700081918030B9F360DFFBCFFF93EF9368DF9E
:10108000F1CFDF93CF93CDB7DEB72596A3DFCF9116
:10109000DF910895FC018281462F50E048305105D0
:1010A00068F5FA01E45BFF4F0C948B2C811129C089
:1010B0008AEE90E00895811127C088EE90E00895AF
:1010C000811125C086EE90E00895811123C084EE41
:1010D00090E00895811121C082EE90E00895811181
:1010E0001FC080EE90E0089581111DC08EED90E04C
:1010F000089581111BC08CED90E0089580E090E090
:1011000008958BEE90E0089589EE90E0089587EEC3
:1011100090E0089585EE90E0089583EE90E00895C4
:1011200081EE90E008958FED90E008958DED90E0D0
:10113000089591E1799FF001112496E6899FE00DD1
:10114000F11D1124E60FF11DE85EFE4F8491089514
:10115000E82FF0E0EE0FFF1FE459F04085919491E5
:10116000089584B1817884B985B1817885B908956D
:1011700085B7806885BF85B7806885BF0E94B10844
:1011800027982F9A87B18F7387B988B1806C88B9F7
:101190008AB11AB88BB18FEF8BB98DB18B7B8DB9BA
:1011A0008EB184648EB980B38C7C80BB81B3836341
:1011B00081BBE2E5F1E0AAE3B1E011921192119254
:1011C00011921D921D921D921D9281E0EA36F80740
:1011D000A1F708954F925F926F927F928F929F92A4
:1011E000AF92BF92EF92FF921F93CF93DF935AE398
:1011F000E52E51E0F52EE70110E0133099F028F4C8
:10120000113051F0123059F004C0143071F0153023
:1012100079F0219A29980EC0229A2A980BC0239A15
:101220002B9808C0249A2C9805C0259A2D9802C0A6
:10123000269A2E9880EA8A95F1F783B1082E000C41
:10124000990BAA0BBB0B80959095A095B09588271C
:10125000B7FD83959927AA27BB27369906C032E0A8
:10126000832E912CA12CB12C03C0812C912C5401E4
:10127000882A992AAA2ABB2A46B1042E000C550BAB
:10128000660B770B4095509560957095DB01CA0110
:101290008827B7FD83959927AA27BB2722E0880FC7
:1012A000991FAA1FBB1F2A95D1F788299929AA2916
:1012B000BB29489905C048E050E060E070E003C0F9
:1012C00040E050E0BA01842B952BA62BB72B49990F
:1012D00005C040E150E060E070E003C040E050E055
:1012E000BA01842B952BA62BB72B4A9906C0E0E2B6
:1012F0004E2E512C612C712C03C0412C512C3201EB
:1013000084299529A629B7294B9906C070E4872E10
:10131000912CA12CB12C03C0812C912C5401882933
:101320009929AA29BB294C9905C040E850E060E002
:1013300070E003C040E050E0BA01842B952BA62B4F
:10134000B72B4D9905C0412C512C3201539403C049
:10135000412C512C320184299529A629B7294E996F
:1013600005C040E052E060E070E003C040E050E0C3
:10137000BA014C015D01842A952AA62AB72A49B1EF
:10138000042E000C550B660B770B4095509560951D
:101390007095DB01CA018827B7FD83959927AA2795
:1013A000BB275AE0880F991FAA1FBB1F5A95D1F778
:1013B00088299929AA29BB29629905C040E058E0EB
:1013C00060E070E003C040E050E0BA01842B952B50
:1013D000A62BB72B669905C040E050E160E070E0B5
:1013E00003C040E050E0BA01842B952BA62BB72B0D
:1013F000789906C0412C30E2532E612C712C03C029
:10140000412C512C320184299529A629B729799993
:1014100006C0812C20E4922EA12CB12C03C0812C7B
:10142000912C540188299929AA29BB297C9905C0A6
:1014300040E050E860E070E003C040E050E0BA01F6
:10144000842B952BA62BB72B7D9905C040E050E04F
:1014500061E070E003C040E050E0BA01842B952BBE
:10146000A62BB72B488159816A817B814817590780
:101470006A077B0769F188839983AA83BB8380917C
:101480000001882311F18091F10180FF04C086E7FB
:1014900094E00E94A8078091F10180FF0EC0809126
:1014A00000011F928F9381E794E09F938F930E9496
:1014B00041080F900F900F900F908091F10180FFE5
:1014C00004C08FE694E00E94A80785E080930001A5
:1014D0000E94B1081F5F2496163009F08ECE8091CD
:1014E00000018823E9F0815080930001882339F0BE
:1014F000CFE9DFE02197F1F700C0000011C0E2E57D
:10150000F1E0E70189919991A991B9917E018193C7
:101510009193A193B193D2E5ED16D1E0FD0689F741
:1015200081E0DF91CF911F91FF90EF90BF90AF903E
:101530009F908F907F906F905F904F90089524E0E0
:10154000829FC0011124FC01EE5AFE4F608171811F
:10155000828193810895CF92DF92EF92FF920F9351
:101560001F93CF93DF9388E594E00E94A80782E55C
:10157000E82E81E0F82EC0E0D0E093E5C92E94E09B
:10158000D92E0AE414E0DF93CF93DF92CF920E942A
:10159000410880E594E00E94A807F70181919191AC
:1015A000A191B1917F010E94211F9F938F931F935F
:1015B0000F930E94410888E494E00E94A8072196B6
:1015C0008DB79EB708960FB6F8949EBF0FBE8DBF1D
:1015D000C630D105C1F6DF91CF911F910F91FF90D9
:1015E000EF90DF90CF900895089580917D01089548
:1015F0009FB7F89410926C019FBF909106029430AF
:1016000009F057C09091E9009F703091EC00232FB2
:10161000217030FD20E8922B24E02093E9002091F6
:10162000EB0020FF43C02091EE0027FF3FC0209138
:101630006A01222321F02091E80025FF37C0109293
:101640006A0126E03091E80035FD15C030910602B0
:10165000343061F53091EB0035FD28C0215021F484
:1016600081E080936A0122C0EFE9FFE03197F1F752
:1016700000C00000E7CF8093F1008091E80085FD75
:101680000AC08091E80080FFFCCF8091E8008E774F
:101690008093E80006C08FB7F89421E020936C0196
:1016A0008FBF9F709093E90080E008959F709093A2
:1016B000E9008FEF0895CF93DF9300D01F92CDB74D
:1016C000DEB79C0180910602843019F593E099837E
:1016D0003B832A839093E9008FEF9091E80081503B
:1016E00095FD06C095ED9A95F1F700008111F5CFB3
:1016F0008091E80085FF0DC040E050E063E070E0BD
:10170000CE0101960E94370E8091E8008E7780937B
:10171000E8000F900F900F90DF91CF910895CF9335
:10172000DF9300D01F92CDB7DEB7209106022430A0
:1017300021F522E029839B838A8383E08093E9005B
:101740008FEF9091E800815095FD06C095ED9A9538
:10175000F1F700008111F5CF8091E80085FF0DC001
:1017600040E050E063E070E0CE0101960E94370E49
:101770008091E8008E778093E8000F900F900F9093
:10178000DF91CF910895209106022430F1F422E0F8
:101790002093E9002FEF3091E800215035FD06C07D
:1017A00035ED3A95F1F700002111F5CF2091E800D1
:1017B00025FF0BC040E050E065E070E00E94370E6E
:1017C0008091E8008E778093E8000895CF93DF93AF
:1017D00020910602243009F048C0EC0180910B01F1
:1017E0008823E1F080910C018823C1F085E080938B
:1017F000E9008FEF9091E800815095FD06C095E1DA
:101800009A95F1F700008111F5CF8091E80085FFEE
:101810002CC040E050E060E170E017C081E08093B0
:10182000E9008FEF9091E800815095FD06C095ED9D
:101830009A95F1F700008111F5CF8091E80085FFBE
:1018400014C040E050E068E070E0CE010E94370E26
:101850008091E8008E778093E80080E1FE01ADE69C
:10186000B1E001900D928A95E1F7DF91CF91089553
:1018700086EB94E00E94A80780910502811109C0BF
:101880000E94C80F0E942A108091E2008460809319
:10189000E200089582EB94E00E94A80710920502EE
:1018A00008958EEA94E00C94A80720916B012F5FB5
:1018B000822F62E30E946B2C992319F020936B0115
:1018C000089510926B0180916C01882371F18091D1
:1018D0000602843041F58091E9008F702091EC0080
:1018E000922F917020FD90E8892B94E09093E9006D
:1018F0009091EB0090FF14C09091EE0097FF10C004
:101900009091E80095FF03C01092F100F9CF9091FB
:10191000E80090FF05C09091E8009E779093E80062
:101920008F708093E90010926C01089542E061ECA1
:1019300081E00E94420F42E061EC82E00E94420F8F
:1019400042E061EC83E00E94420F42E261EC84E0FD
:101950000E94420F42E161EC85E00C94420F8091BD
:101960000802833009F455C030F4813071F08230C0
:1019700009F48EC008958A3009F47AC08B3009F4D6
:1019800060C0893009F09CC020C080910702813A74
:1019900009F096C08091E800877F8093E8008091ED
:1019A0000B0290910C02892B21F460E18DE691E00D
:1019B00003C060E080E090E070E00E94820E8091C1
:1019C000E8008B778093E8000895809107028132C8
:1019D00009F076C080910B0290910C02009719F0EB
:1019E000049709F06DC08091E800877F8093E8003C
:1019F0008091E80082FD05C0809106028111F8CF38
:101A00005FC08091F10080937D018091E8008B7729
:101A100053C080910702813A09F052C080910B02B5
:101A200090910C02892B09F04BC08091E800877FD0
:101A30008093E8008091E80080FFFCCF80910B014B
:101A400036C0809107028132D9F580910B029091C6
:101A50000C02892BA9F58091E800877F8093E8002C
:101A60000E94770F8091090280930B010C94D61885
:101A700080910702813221F58091E800877F809371
:101A8000E8000E94770F80910A0280937E010895FA
:101A900080910702813AA1F48091E800877F8093CA
:101AA000E8008091E80080FFFCCF80917E01809368
:101AB000F1008091E8008E778093E8000C94770F16
:101AC00008950895089508958AEA94E00E94A80769
:101AD0000C94630D0E94501F80910402882329F00A
:101AE0000E947B1F81110C94210E089584B7877F7B
:101AF00084BF0FB6F894A8958091600088618093A8
:101B00006000109260000FBE90E080E80FB6F8947D
:101B100080936100909361000FBE0E94610D0E944E
:101B200047130E94C80F0E942A108091E20084602F
:101B30008093E20088EF9AE00E94061F78948091DB
:101B400006028430E1F785E994E00E94A8070E942C
:101B5000491381E091E00E94B51284E894E00E946C
:101B6000A8070E94620D80910602853039F480E852
:101B700094E00E94A8070E946A0DF5CF0E944F13BF
:101B8000F2CF0C94921F86EA94E00E94A8070C946E
:101B9000C10D292F332723303105C9F064F42130DA
:101BA000310581F02230310509F043C08DE890E025
:101BB0002AEE34E042C021323105F1F02232310503
:101BC00041F137C082E190E027E735E036C0992740
:101BD0008130910541F08230910541F0892B49F522
:101BE000E6EEF4E005C0ECEDF4E002C0EAEBF4E070
:101BF000849190E09F0121C06530D8F4E62FF0E099
:101C0000EE0FFF1FEC5DFE4F2081318189E090E0F7
:101C100014C0653070F470E0FB01EE0FFF1FE65E4C
:101C2000FE4F20813181FB01EB5EFE4F808190E011
:101C300004C080E090E020E030E0FA0131832083AE
:101C4000089584E189BD86E189BD09B400FEFDCF18
:101C50008091D8008F7D8093D8008091E0008260D1
:101C60008093E0008091E00081FDFCCF0895CF9249
:101C7000DF92EF92FF920F931F93CF93DF93EC01CC
:101C80008B016A010E94960F811133C0C114D104E7
:101C900039F0F60180819181081B190BC80FD91FFB
:101CA000E12CF12C0115110519F18091E80085FD59
:101CB00016C08091E8008E778093E800C114D104AB
:101CC00049F0F60180819181E80EF91EF182E082EF
:101CD00085E00FC00E94960F882321F30AC08991E6
:101CE0008093F10001501109FFEFEF1AFF0ADACFDC
:101CF00080E0DF91CF911F910F91FF90EF90DF90E7
:101D0000CF90089520910D0230910E0226173707CB
:101D100048F06115710539F42091E8002E77209381
:101D2000E80001C0B90140E06115710599F1209109
:101D30000602222309F441C0253009F440C0209155
:101D4000E80023FD3EC02091E80022FD30C0209134
:101D5000E80020FFE9CF2091F2003091F300FC0170
:101D6000CF016115710559F02830310540F481919A
:101D70008093F100615071092F5F3F4FF1CF41E037
:101D80002830310509F040E02091E8002E772093BB
:101D9000E800CACF4111CBCF0AC080910602882348
:101DA00061F0853061F08091E80083FD0AC0809188
:101DB000E80082FFF2CF80E0089582E0089583E09A
:101DC000089581E0089520910D0230910E022617AA
:101DD000370748F06115710539F42091E8002E7736
:101DE0002093E80001C0B901FC0120E061157105F4
:101DF00081F180910602882309F43EC0853009F400
:101E00003DC08091E80083FD3BC08091E80082FDE9
:101E10002DC08091E80080FFE9CF8091F200909181
:101E2000F3006115710559F08830910540F4249153
:101E30002093F1003196615071090196F2CF21E0B3
:101E4000089709F020E08091E8008E778093E80001
:101E5000CDCF2111CECF0AC080910602882361F038
:101E6000853061F08091E80083FD0AC08091E80030
:101E700082FFF2CF80E0089582E0089583E0089524
:101E800081E00895982F973058F59093E9009817BE
:101E900039F07091EC002091ED005091F00003C0FA
:101EA000242F762F50E021FF19C03091EB003E7FA8
:101EB0003093EB003091ED003D7F3093ED00309199
:101EC000EB0031603093EB007093EC002093ED0059
:101ED0005093F0002091EE0027FF07C09F5FD3CF03
:101EE0008F708093E90081E0089580E008958091EB
:101EF000070287FF11C08091E80082FD05C0809134
:101F000006028111F8CF11C08091E8008B770BC0D9
:101F100080910602882349F08091E80080FFF8CF85
:101F20008091E8008E778093E80008952091E40086
:101F30003091E50095E64091EC00842F817040FFE0
:101F400022C08091E80080FD1CC080910602882399
:101F500091F0853091F08091EB0085FD10C04091AB
:101F6000E4005091E5004217530729F39A0191507C
:101F700011F784E0089582E0089583E0089581E0F8
:101F8000089580E008954091E80042FFDECF089573
:101F90000E9439100E944110E0EEF0E080818160E3
:101FA0008083E8EDF0E080818F77808319BCA7ED16
:101FB000B0E08C918E7F8C9380818F7E8083109295
:101FC000050208950F931F93CF93DF930E9439105A
:101FD0000E944110C8EDD0E088818F778883888186
:101FE0008068888388818F7D8883E7EDF0E0808139
:101FF0008068808319BC109206021092020210922F
:1020000004021092030200EE10E0F80180818B7F41
:10201000808388818160888342E060E080E00E9464
:10202000420FE1EEF0E080818E7F8083E2EEF0E00F
:10203000808181608083808188608083F8018081D5
:102040008E7F8083888180618883DF91CF911F910B
:102050000F910895E8EDF0E080818F7E8083E7EDB9
:10206000F0E080818160808381E0809305020C94A0
:10207000E20FE8EDF0E080818C7F80831092E20037
:1020800008951092DA001092E10008951F920F92C5
:102090000FB60F9211240BB60F922F933F934F93CD
:1020A0005F936F937F938F939F93AF93BF93EF93C0
:1020B000FF938091E10082FF0BC08091E20082FFDC
:1020C00007C08091E1008B7F8093E1000E94550C56
:1020D0008091DA0080FF1FC08091D80080FF1BC074
:1020E0008091DA008E7F8093DA008091D90080FFA2
:1020F0000DC084E189BD86E189BD09B400FEFDCF34
:1021000081E0809306020E94380C05C019BC109231
:1021100006020E944A0C8091E10080FF19C0809164
:10212000E20080FF15C08091E2008E7F8093E20084
:102130008091E20080618093E2008091D80080620B
:102140008093D80019BC85E0809306020E94640D3C
:102150008091E10084FF30C08091E20084FF2CC0B8
:1021600084E189BD86E189BD09B400FEFDCF80917F
:10217000D8008F7D8093D8008091E1008F7E80937E
:10218000E1008091E2008F7E8093E2008091E20086
:1021900081608093E20080910202882311F084E044
:1021A00007C08091E30087FD02C081E001C083E0A9
:1021B000809306020E94C30D8091E10083FF29C035
:1021C0008091E20083FF25C08091E100877F8093AA
:1021D000E10082E080930602109202028091E10009
:1021E0008E7F8093E1008091E2008E7F8093E200F9
:1021F0008091E20080618093E20042E060E080E054
:102200000E94420F8091F00088608093F0000E944D
:10221000510CFF91EF91BF91AF919F918F917F9161
:102220006F915F914F913F912F910F900BBE0F9047
:102230000FBE0F901F9018951F920F920FB60F921E
:1022400011240BB60F922F933F934F935F936F938D
:102250007F938F939F93AF93BF93CF93DF93EF932E
:10226000FF93C091E900CF708091EC00D82FD1701E
:1022700080FDD0E81092E9008091F000877F809384
:10228000F00078940E9464111092E9008091F000AF
:1022900088608093F000CD2BCF70C093E900FF9150
:1022A000EF91DF91CF91BF91AF919F918F917F91EE
:1022B0006F915F914F913F912F910F900BBE0F90B7
:1022C0000FBE0F901F9018951F93CF93DF93CDB73C
:1022D000DEB7AA970FB6F894DEBF0FBECDBFE7E01A
:1022E000F2E088E08E0F9091F10091938E13FBCF76
:1022F0000E94AF0C8091E80083FF1FC1809107020C
:1023000090910802492F50E04A30510508F015C15C
:10231000FA01EC5AFF4F0C948B2C803881F08238F4
:1023200009F00BC180910B028F708093E9008091BE
:10233000EB0085FB882780F91092E90006C08091A8
:10234000030290910402911182609091E800977FBE
:102350009093E8008093F1001092F100C8C0282FFC
:102360002D7F09F0EAC0882319F0823061F0E5C0C2
:1023700080910902813009F0E0C0933009F080E0DB
:10238000809304022BC080910902811127C08091A3
:102390000B028F7009F4D1C08093E9002091EB000B
:1023A00020FF1CC0933021F48091EB00806214C0A8
:1023B0009091EB0090619093EB0021E030E0A90157
:1023C00002C0440F551F8A95E2F74093EA0010922D
:1023D000EA008091EB0088608093EB001092E900A6
:1023E0008091E800877F86C08111A7C01091090203
:1023F0001F778091E3008078812B8093E3008091A8
:10240000E800877F8093E8000E94770F8091E800C2
:1024100080FFFCCF8091E30080688093E30011117E
:1024200002C082E001C083E08093060286C080582B
:10243000823008F082C08091090290910A028C3D9E
:1024400053E0950779F583E08A838AE289834FB761
:10245000F894DE01139620E03EE051E2E32FF0E035
:1024600050935700E49120FF03C0E295EF703F5F67
:10247000EF708E2F90E0EA3010F0C79601C0C09642
:102480008D939D932F5F243149F74FBF8091E800D2
:10249000877F8093E8006AE270E0CE0101960E9497
:1024A000820E14C0AE014F5F5F4F60910B020E941D
:1024B000C90DBC01892B09F440C09091E800977FB9
:1024C0009093E80089819A810E94E30E8091E80050
:1024D0008B778093E80031C0803879F58091E800EF
:1024E000877F8093E800809102028093F1008091C1
:1024F000E8008E778093E8000E94770F1EC081115C
:102500001CC0909109029230C0F48091E800877F4E
:102510008093E800909302020E94770F809102025C
:10252000811106C08091E30087FD02C081E001C0F7
:1025300084E0809306020E94960C8091E80083FF5D
:102540000AC08091E800877F8093E8008091EB00CB
:1025500080628093EB00AA960FB6F894DEBF0FBEA0
:10256000CDBFDF91CF911F91089590938401809307
:1025700083010895E0918301F0918401309721F067
:102580000190F081E02D099480E00895EF92FF9290
:102590000F931F93CF93DF93E0918301F091840118
:1025A0003097B1F18C010280F381E02D0995809183
:1025B000F10182FF2DC080FF04C08FEA96E00E94E7
:1025C000A807E80110E189EAE82E86E0F82E80915C
:1025D000F10180FF0BC088811F928F93FF92EF92D1
:1025E0000E9441080F900F900F900F90115021966C
:1025F0001111EDCF8091F10180FF0AC087EA96E0CA
:10260000DF91CF911F910F91FF90EF900C94A8074D
:10261000DF91CF911F910F91FF90EF900895E0917E
:102620008301F0918401309721F00480F581E02D41
:1026300009940895209181013091820182179307B6
:1026400071F09093820180938101E0918301F09178
:102650008401309721F00680F781E02D09940895D8
:1026600020917F01309180018217930771F0909340
:10267000800180937F01E0918301F0918401309784
:1026800021F00084F185E02D0994089508950C94BB
:1026900046130E94BD1F0E94B8080C94DB214F9284
:1026A0005F926F927F929F92AF92BF92CF92DF9292
:1026B000EF92FF920F931F93CF93DF93CDB7DEB7C7
:1026C00029970FB6F894DEBF0FBECDBF0E94EA086F
:1026D00046E8A42E41E0B42E00E010E0902E802FBA
:1026E0000E949F0AF501C190D190E190F1905F01A5
:1026F000C626D726E826F926C114D104E104F10440
:10270000B1F40F5F1F4F0630110541F78FEF89833A
:102710008A831B820E94C61F8160782F9D838C83D1
:1027200049815A816B818D810E944C1464C0209133
:10273000F10121FF0AC06E837F83888799870E94F9
:10274000AB0A998588857F816E8140E050E0260143
:102750003701042E04C076946794579447940A94E2
:10276000D2F740FE41C049839A82C12CD12C760118
:10277000C39404C0CC0CDD1CEE1CFF1C4A95D2F7A0
:1027800026013701462257226822792281E0452816
:102790004628472809F480E08B830E94C61F816089
:1027A000782F9D838C8349815A816B818D810E9412
:1027B0004C1449815A816B817C818D810E943C1F20
:1027C000000F111F000F111FF801EA57FE4F808103
:1027D0009181A281B381C826D926EA26FB26C08230
:1027E000D182E282F38207C04F5F5F4F41315105D2
:1027F00009F0ADCF86CF0E943B1F0E946525109146
:1028000085010E94BA12181779F10E94BA128093BA
:1028100085019091F10192FF0EC090FF0CC01F92B4
:102820008F9381EC96E09F938F930E9441080F90C5
:102830000F900F900F908091850129960FB6F89414
:10284000DEBF0FBECDBFDF91CF911F910F91FF90E3
:10285000EF90DF90CF90BF90AF909F907F906F9060
:102860005F904F900C944D1F29960FB6F894DEBFE1
:102870000FBECDBFDF91CF911F910F91FF90EF90D1
:10288000DF90CF90BF90AF909F907F906F905F90C0
:102890004F9008950C94F40ACF93DF93CDB7DEB731
:1028A0002B970FB6F894DEBF0FBECDBF942F4F838A
:1028B000252F588769877A878B874A855B85452BC3
:1028C00021F02F3F09F59F3FF9F4DE01119686E0D4
:1028D000FD0111928A95E9F785E0FE013796019096
:1028E0000D928A95E1F749815A816B817C818D81B6
:1028F0009E810E94701B2B960FB6F894DEBF0FBE10
:10290000CDBFDF91CF9108954F81588569857A8534
:102910008B850E943C1FD9CFCF93882309F4CDC06B
:10292000C82F823859F40E94BA1281FDC6C089E3CB
:102930000E94FB1D0E94E01E89E30CC0833879F4DD
:102940000E94BA1280FDB9C083E50E94FB1D0E945F
:10295000E01E83E50E944E1ECF910C94E01E843849
:1029600059F40E94BA1282FDA8C087E40E94FB1DA0
:102970000E94E01E87E4EECF8CEF8C0F813A48F482
:102980008C2F0E94E529811198C08C2F0E94FB1D7D
:10299000E3CF80E28C0F883048F4C77081E001C03B
:1029A000880FCA95EAF70E94A61ED6CF8BE58C0F3A
:1029B000833078F4C53A29F0C63A31F083E890E0E4
:1029C00005C081E890E002C082E890E0CF910C94CD
:1029D0001A1388E58C0F853108F06FC0C83A61F191
:1029E000C93A69F1CA3A71F1CB3A79F1CC3A81F13D
:1029F000CD3A89F1CE3A91F1CF3A99F1C13BA1F1AB
:102A0000C03BA9F1C23BB1F1C33BB9F1C43BC1F139
:102A1000C53BC9F1C63BD1F1C73BD9F1C83BE1F198
:102A2000C93BE9F1CA3BF1F1CB3BF9F1CC3B09F4ED
:102A30003FC080E090E03EC082EE90E03BC089EE77
:102A400090E038C08AEE90E035C085EB90E032C06F
:102A500086EB90E02FC083EB90E02CC084EB90E0FD
:102A600029C087EB90E026C08CEC90E023C08DEC71
:102A700090E020C083E891E01DC08AE891E01AC090
:102A800082E991E017C084E991E014C081E292E00C
:102A900011C083E292E00EC084E292E00BC085E2B6
:102AA00092E008C086E292E005C087E292E002C0B0
:102AB0008AE292E0CF910C943013CF91089588234D
:102AC00009F44BC0823859F40E94BA1281FF45C004
:102AD00089E30E94FB1D0E94E01E89E30CC083383D
:102AE00071F40E94BA1280FF38C083E50E94FB1D7A
:102AF0000E94E01E83E50E944E1E0C94E01E843866
:102B000059F40E94BA1282FF28C087E40E94FB1D7C
:102B10000E94E01E87E4EFCF9CEF980F913A58F3A4
:102B200090E2980F983050F4877091E001C0990FAF
:102B30008A95EAF7892F0E94AC1EDFCF9BE5980F9C
:102B4000933020F480E090E00C941A13885A853179
:102B500020F480E090E00C9430130895882321F055
:102B60000E94A61E0C94E01E0895882321F00E9466
:102B7000AC1E0C94E01E0895CF92DF92EF92FF926C
:102B80000F931F93CF93DF9300D000D000D0CDB729
:102B9000DEB725E0FC01DE01119601900D922A9529
:102BA000E1F7FC0140813181F280258122952F706F
:102BB00063817481672B09F4D8C23F3F19F44F3FFA
:102BC00009F4D3C26C0149833A8389819A812E83A7
:102BD0000E94BA1D182F092F0E94B91D0E94C91CFE
:102BE000E02FE295EF70F0E0E25AFF4F2E810C9457
:102BF0008B2C802F807F902F9F70092F882311F0BE
:102C00000295007FFF2049F0002309F45FC2802F66
:102C10000E94B91E0E94E01E59C2812F0E945F15BA
:102C2000002309F4A2C2802F0E94BF1E26960FB671
:102C3000F894DEBF0FBECDBFDF91CF911F910F91F2
:102C4000FF90EF90DF90CF900C94E01E802F807F5C
:102C5000902F9F70092F803211F00295007F112371
:102C600019F0113001F129C0FF20A9F0802F222393
:102C700049F1213039F526960FB6F894DEBF0FBE24
:102C8000CDBFDF91CF911F910F91FF90EF90DF901B
:102C9000CF900C94C91E222319F0213009F465C28B
:102CA0000E94CC1E2CC0FF20E9F0263008F05DC247
:102CB0000E94A31E802329F022C0FF20F1F02111E1
:102CC00015C0802F26960FB6F894DEBF0FBECDBF7D
:102CD000DF91CF911F910F91FF90EF90DF90CF90F8
:102CE0000C94AE15253008F040C209C0F60185816C
:102CF00080FFECC18F708583E4CF2111FBC1802F51
:102D000069C1202F26952695237030E021153105C5
:102D100021F021303105C9F028C2FF2021F0812F98
:102D2000902F937002C080E090E026960FB6F89442
:102D3000DEBF0FBECDBFDF91CF911F910F91FF90EE
:102D4000EF90DF90CF900C941A13FF2021F0812F89
:102D5000902F937002C080E090E026960FB6F89412
:102D6000DEBF0FBECDBFDF91CF911F910F91FF90BE
:102D7000EF90DF90CF900C943013812FFF2019F04B
:102D80000E94EB2302C00E94532426960FB6F894AB
:102D9000DEBF0FBECDBFDF91CF911F910F91FF908E
:102DA000EF90DF90CF900C94D824802F837009F09F
:102DB00078C0F110DAC1812F829586958770880FCF
:102DC000880F912F9F70C92ED12CE12CF12C082E49
:102DD00004C0CC0CDD1CEE1CFF1C0A94D2F714FFBF
:102DE00012C04FE050E060E070E004C0440F551F97
:102DF000661F771F8A95D2F7CB01BA01609570954F
:102E00008095909503C060E070E0CB01202F26955F
:102E100026952370422F50E042305105D1F04330C7
:102E2000510559F16C297D298E299F294130510581
:102E300041F126960FB6F894DEBF0FBECDBFDF91ED
:102E4000CF911F910F91FF90EF90DF90CF900C9456
:102E5000DE1C6C297D298E299F2926960FB6F894B1
:102E6000DEBF0FBECDBFDF91CF911F910F91FF90BD
:102E7000EF90DF90CF900C94F01C0E94DE1CC701F5
:102E8000B60126960FB6F894DEBF0FBECDBFDF9118
:102E9000CF911F910F91FF90EF90DF90CF900C9406
:102EA000CC1CFF2019F0802F817001C086958823EB
:102EB00009F45BC1812F829586958770880F880FF2
:102EC000912F9F70C92ED12CE12CF12C082E04C01B
:102ED000CC0CDD1CEE1CFF1C0A94D2F714FF12C0B0
:102EE0004FE050E060E070E004C0440F551F661FE3
:102EF000771F8A95D2F7CB01BA01609570958095BE
:102F0000909503C060E070E0CB01202F26952695B8
:102F10002370422F50E042305105D1F0433051052B
:102F200059F16C297D298E299F294130510541F1A4
:102F300026960FB6F894DEBF0FBECDBFDF91CF91BE
:102F40001F910F91FF90EF90DF90CF900C94951D03
:102F50006C297D298E299F2926960FB6F894DEBF0D
:102F60000FBECDBFDF91CF911F910F91FF90EF90DA
:102F7000DF90CF900C94A71D0E94951DC701B6014C
:102F800026960FB6F894DEBF0FBECDBFDF91CF916E
:102F90001F910F91FF90EF90DF90CF900C94831DC5
:102FA000103F41F118F4103E48F48BC0123F09F471
:102FB00050C0D8F1133F09F460C083C01F70802F48
:102FC0008F71FF2021F00E941C1D812F7BCE0E945B
:102FD0003D1D812F26960FB6F894DEBF0FBECDBFE4
:102FE000DF91CF911F910F91FF90EF90DF90CF90E5
:102FF0000C94B515FF20A9F0253008F0B6C0802F3D
:103000008F7126960FB6F894DEBF0FBECDBFDF914D
:10301000CF911F910F91FF90EF90DF90CF900C9484
:10302000621D263008F0A1C0EACFFF20A1F0802F5A
:103030008F7126960FB6F894DEBF0FBECDBFDF911D
:10304000CF911F910F91FF90EF90DF90CF900C9454
:103050001C1DFF2061F3802F8F7126960FB6F89408
:10306000DEBF0FBECDBFDF91CF911F910F91FF90BB
:10307000EF90DF90CF900C943D1DFF2091F0802FBA
:103080008F7126960FB6F894DEBF0FBECDBFDF91CD
:10309000CF911F910F91FF90EF90DF90CF900C9404
:1030A000071D26960FB6F894DEBF0FBECDBFDF9189
:1030B000CF911F910F91FF90EF90DF90CF900C94E4
:1030C000021DFF20A1F0222309F4B1CF812F269603
:1030D0000FB6F894DEBF0FBECDBFDF91CF911F9129
:1030E0000F91FF90EF90DF90CF900C948C142223DF
:1030F00009F4B1CF812F26960FB6F894DEBF0FBE2C
:10310000CDBFDF91CF911F910F91FF90EF90DF9096
:10311000CF900C945F15402F4F70612FC6010E9415
:103120004A0826960FB6F894DEBF0FBECDBFDF91DA
:10313000CF911F910F91FF90EF90DF90CF900C9463
:10314000141C402F4F70612FC60126960FB6F894BD
:10315000DEBF0FBECDBFDF91CF911F910F91FF90CA
:10316000EF90DF90CF900C94812126960FB6F894C3
:10317000DEBF0FBECDBFDF91CF911F910F91FF90AA
:10318000EF90DF90CF9008950E94C61E0E94951E7A
:103190000E94E01E0E940A260E94D82480E090E04F
:1031A0000E941A1380E090E00C9430130E94B61E27
:1031B0000C94C4180E94BA1D292F22952F7030E05C
:1031C0002C3031054CF42A3031056CF42250310991
:1031D0002230310588F407C02C30310549F02F30FA
:1031E000310531F009C0803E48F0803F29F406C027
:1031F00093FB882780F9089580E0089581E0089581
:10320000CF93DF9300D000D01F92CDB7DEB70F90E1
:103210000F900F900F900F90DF91CF910895CF9363
:10322000DF9300D000D000D0CDB7DEB726960FB622
:10323000F894DEBF0FBECDBFDF91CF9108951F93ED
:10324000CF93DF93C0919E0116E080919F01C81734
:1032500099F0D0E01C9FF0011D9FF00D1124E05665
:10326000FE4F4081518162817381848195810E94EA
:103270000F192196C770E9CFDF91CF911F91089563
:103280004091D0015091D1016091D2017091D30150
:103290008091D4019091D5010C940F198091D501A2
:1032A00082958F7009F054C08091D201882309F46F
:1032B0004FC080919E01A0919F016091D0017091BB
:1032C000D1014091D3015091D401B6E08A1709F49D
:1032D0003FC090E041155105C1F17F3F11F46F3FB0
:1032E000A1F1B89FF001B99FF00D1124E056FE4FF7
:1032F000218172132AC02081621327C022812111EB
:1033000024C0238134812417350710F4215031095A
:10331000241B350B283C3105C0F42091D5012F70BA
:1033200020612093D50126E0289FF001299FF00D10
:103330001124EB55FE4F80818F708061808380ED7A
:1033400091E00E94BC150C941F1901968770BECFA6
:103350000895CF92DF92EF92FF920F931F93CF9336
:10336000DF93CDB7DEB762970FB6F894DEBF0FBE1E
:10337000CDBF8C0185E0F801DE011D9601900D9214
:103380008A95E1F7D8014C9111965C9111971296AC
:103390006C9112971396CD90DC9014973091D001D8
:1033A0007091D1018091D3019091D401009709F4DB
:1033B0006BC17F3F19F43F3F09F466C1E090D20131
:1033C000EE2009F4C0C02091D501C816D90628F016
:1033D000F601E81BF90BCF0104C0809590958C0D88
:1033E0009D1DFF24F394883C910578F0F12C207FFB
:1033F00009F0C6C07C2DD98AC88A89890E94001923
:1034000080ED91E00E94BC15B1C0822F807F09F051
:1034100046C0751314C0341312C0611110C02F7050
:1034200020612093D5010E94401980ED91E00E9417
:10343000BC158091D501D80115968C932EC0CD284E
:1034400019F15F3F11F44F3FF9F0F62E61111CC0E6
:1034500080919E0120919F0136E0821709F45AC0A5
:1034600090E0389FF001399FF00D1124E056FE4F97
:103470007181571306C07081471303C072817111A7
:1034800003C001968770E9CFF62E662309F418C1B0
:103490008091D50181608093D501F12C11C1751304
:1034A00008C0341306C0611104C08091D501D80151
:1034B000C3C04D875E878D859E856A8B0E94DA1812
:1034C0006A898823E1F16623D1F12091D501822F09
:1034D00082958F7090E0029774F08091D001909166
:1034E000D10198878F831986DB86CA862C87CE0107
:1034F00007960E94BC1586E0F801A0EDB1E00190AE
:103500000D928A95E1F70E944E190E944019FF24FE
:10351000F394D6C04D875E878D859E850E94BA1D27
:10352000292F22952F7030E0223031050CF0BCC0DD
:103530009F7009F0B6C0805E883008F4C1C0C80131
:103540000E94BC15E4CFC816D90608F453C0F60192
:10355000E81BF90BCF01883C910508F450C0F12C11
:103560007C2DD98AC88A89890E940019E0EDF1E092
:1035700086E0DF011D928A95E9F70E944019A0C0FC
:10358000751314C0341312C0611110C08091D5019D
:10359000F8018583C8010E94BC1586E0E0EDF1E0EA
:1035A000DF011D928A95E9F7FE2C8AC04D875E8760
:1035B0008D859E856A8B0E94DA186A89882309F4B2
:1035C000BECF662309F4BBCF2091D501822F82950F
:1035D0008F7090E002970CF48ECF8091D001909183
:1035E000D1019A8389831B82DD82CC822E83CE0116
:1035F00001967FCF809590958C0D9D1DACCFF62EBA
:10360000662309F49CCF75132EC034132CC020916F
:10361000D50120FD1FC0822F82958F70D9F0D8016F
:1036200015962C9315978F3049F08F5F982F9295B0
:10363000907F822F8F70892B15968C93C8010E94E2
:10364000BC1586E0F801A0EDB1E001900D928A95DD
:10365000E1F793CF86E0F801A0EDB1E001900D9283
:103660008A95E1F72DC04D875E878D859E850E94E6
:10367000DA18811140CF8091D50181608093D50106
:10368000C8010E94BC151CC0662309F458CF4D87A1
:103690005E878D859E850E94DA18882309F44FCFB6
:1036A0002ACF811148CF0CC0243031050CF047CF10
:1036B0009F7009F440CFF8019581907F09F03BCFCE
:1036C0008F2D62960FB6F894DEBF0FBECDBFDF918F
:1036D000CF911F910F91FF90EF90DF90CF900895C1
:1036E0001F93CF93DF93CDB7DEB72C970FB6F89427
:1036F000DEBF0FBECDBF4F83588769877A878B8720
:103700009C87CE0107960E94A919882369F08F81B2
:1037100098852A853B85232BF1F19F3F09F063C0F3
:103720008F3F09F060C037C086E0FE013796DE01AA
:10373000119601900D928A95E1F76F817885EA855F
:10374000FB85309741F17F3F11F46F3F21F12091CC
:103750009F0130E0C90101968770992740919E0131
:1037600050E08417950709F447C069837A83FD8385
:10377000EC8396E0929FD001939FB00D1124A05648
:10378000BE4FFE01319601900D929A95E1F780931C
:103790009F010E941F1916E080919E0190919F0148
:1037A0008917C1F1189FC001112480569E4F0E94B5
:1037B000A919882379F1E0919E011E9FF00111243F
:1037C000E056FE4F408151816281738184819581F1
:1037D0000E940F1980919E0190E0019687709927B1
:1037E00080939E01D9CF4F81588569857A858B85D5
:1037F0009C850E940F19CFCF0E94D61810929F016E
:1038000010929E01E0EDF1E086E0DF011D928A95C5
:10381000E9F7C1CF2C960FB6F894DEBF0FBECDBF2F
:10382000DF91CF911F910895DF92EF92FF920F9356
:103830001F93CF93DF93FC01892B09F48AC0E12CFD
:10384000F12CDD24D394EF0121968491853709F47E
:1038500061C058F4843708F04EC0843008F06AC064
:103860008130D1F0823071F174C0883709F45DC0C5
:1038700050F4863709F455C0873709F06AC08E2D99
:103880000E94B31E54C09CE7980F903708F061C0A7
:103890008F770E945F1550C08F010E5F1F4FFE0192
:1038A000849190E2980F983050F48770FD2D01C0FC
:1038B000FF0F8A95EAF78F2F0E94B91E14C00E944D
:1038C0008C1413C08F010E5F1F4FFE01C49180E264
:1038D0008C0F883060F4C7708D2D01C0880FCA9599
:1038E000EAF70E94BF1E0E94E01EE80125C08C2F4F
:1038F0000E945F15FACF9F012E5F3F4FFE01C491DA
:10390000CC2369F08FE99FE00197F1F700C0000038
:10391000C150F6CF9F012E5F3F4FFE01F490E901A9
:103920000BC00E94A31EE82E07C00E94B61E0E9474
:10393000E01E02C00E948C148F2D882341F0EFE915
:10394000FFE03197F1F700C000008150F6CFFE0193
:103950007ACFDF91CF911F910F91FF90EF90DF9081
:1039600008956093DA017093DB018093DC019093FA
:10397000DD010E944B1F0C94C4186093D601709314
:10398000D7018093D8019093D9010E944C1F0C94C9
:10399000C41808950C94B11C0F931F930091DA0181
:1039A0001091DB012091DC013091DD01602B712B46
:1039B000822B932B1F910F910C94B11C0F931F938B
:1039C0000091DA011091DB012091DC013091DD01E1
:1039D00060237123822393231F910F910C94B11CB8
:1039E0000F931F930091DA011091DB012091DC010C
:1039F0003091DD0160277127822793271F910F9156
:103A00000C94B11C60E070E0CB010C94BD1C0F93D2
:103A10001F9341E050E060E070E08A019B0104C028
:103A2000000F111F221F331F8A95D2F7C901B80159
:103A30001F910F910C94BD1C0F931F9341E050E018
:103A400060E070E004C0440F551F661F771F8A9521
:103A5000D2F78091D6019091D701A091D801B09171
:103A6000D9018A019B01082B192B2A2B3B2BC90159
:103A7000B8011F910F910C94BD1C0F931F9341E04F
:103A800050E060E070E004C0440F551F661F771FD0
:103A90008A95D2F740955095609570958091D601A2
:103AA0009091D701A091D801B091D9018A019B01D1
:103AB000082319232A233B23C901B8011F910F9121
:103AC0000C94BD1C0F931F9341E050E060E070E048
:103AD00004C0440F551F661F771F8A95D2F7809147
:103AE000D6019091D701A091D801B091D9018A0156
:103AF0009B01082719272A273B27C901B8011F91D5
:103B00000F910C94BD1C0F931F930091D60110913F
:103B1000D7012091D8013091D901602B712B822BD4
:103B2000932B1F910F910C94BD1C0F931F93009129
:103B3000D6011091D7012091D8013091D90160238D
:103B40007123822393231F910F910C94BD1C0F931B
:103B50001F930091D6011091D7012091D801309187
:103B6000D90160277127822793271F910F910C9409
:103B7000BD1C0895CF92DF92EF92FF920F931F9397
:103B8000CF93DF938C01C090DA01D090DB01E090FD
:103B9000DC01F090DD014091D6015091D701609198
:103BA000D8017091D901C42AD52AE62AF72ACFE193
:103BB000D0E0D701C6010C2E04C0B695A795979505
:103BC00087950A94D2F780FF07C0B8018C2F0E9416
:103BD0000E218130910531F4219758F7B80180E02A
:103BE0000E940E21DF91CF911F910F91FF90EF90D6
:103BF000DF90CF90089590910B01992321F090913F
:103C00000C01911109C020910D0130910E01F901B3
:103C100032969FEF40E030C0982F969596959695F6
:103C20009F30A0F4E0910D01F0910E01E90FF11D1C
:103C3000877021E030E0A90102C0440F551F8A952A
:103C4000E2F7CA019181892B818308959091F10156
:103C500090FF23C01F928F938AEE96E09F938F93DD
:103C60000E9441080F900F900F900F9008959F3F72
:103C700039F04F5F4E3041F051915813F8CF0DC0DD
:103C80005111F7CF942FF5CF9F3F39F0F901E90F8C
:103C9000F11D97FDFA9582830895089590910B0187
:103CA000992321F090910C01911109C020910D01EF
:103CB00030910E01F9013296205F3F4F30C0982FAE
:103CC0009695969596959F30A8F4E0910D01F09108
:103CD0000E01E90FF11D877021E030E0A90102C05B
:103CE000440F551F8A95E2F7CA0180959181892377
:103CF000818308959091F10190FF16C01F928F93D8
:103D00008CEC96E09F938F930E9441080F900F9048
:103D10000F900F9008953196E217F30729F09081E4
:103D20009813F9CF1082F7CF089581E090E0E091E9
:103D30000D01F0910E01E80FF91F108201968031FC
:103D40009105A9F708958091F00108959091F001EF
:103D5000892B8093F001089580959091F00189233B
:103D60008093F00108958093F00108951092F0017E
:103D700008959091EF01892B8093EF01089580952C
:103D80009091EF0189238093EF0108951092EF0144
:103D900008958093DE0108951092DE0108958091C8
:103DA0000D0190910E01FC0131969C01205F3F4F67
:103DB00080E0919191118F5FE217F307D1F7089599
:103DC000E0910D01F0910E018091F0018083E0916E
:103DD0000D01F0910E0190818091EF01892B80837C
:103DE0008091DE01882361F0E0910D01F0910E01D8
:103DF0009081892B80830E94CF1E81111092DE0159
:103E000080910D0190910E010C94C612909339018E
:103E10008093380108958295982F9C7C392F369590
:103E20003695282F237344E0249FC0011124932F3B
:103E3000982B292F2A7A2695892F8575880F822B12
:103E400008951F93CF93DF931F92CDB7DEB7998369
:103E50000E940B1F182F9981892F0E940B1F212F61
:103E600030E0322F2227A901482BCA010F90DF91A1
:103E7000CF911F9108950895CF93DF9300D000D084
:103E80001F92CDB7DEB70F900F900F900F900F904D
:103E9000DF91CF910895089508950C944A140895E0
:103EA00080910602843021F11092F20120E488E131
:103EB00090E00FB6F894A895809360000FBE209311
:103EC000600083B7817F846083BF83B7816083BFD5
:103ED0007894889583B78E7F83BF0FB6F894A895A2
:103EE00080916000886180936000109260000FBE36
:103EF000089508950895CF930E94791F0E94EA08BB
:103F00000E947A1FC0E08C2F0E949F0A672B682BAB
:103F1000692B29F4CF5FC630B1F780E001C081E0A2
:103F2000CF9108950C94D6181F920F920FB60F924E
:103F300011248F939F93AF93BF938091F2018111CE
:103F400013C08091F3019091F401A091F501B0911B
:103F5000F6014196A11DB11D8093F3019093F401E8
:103F6000A093F501B093F601BF91AF919F918F910E
:103F70000F900FBE0F901F90189582E084BD93E0C4
:103F800095BD9AEF97BD80936E0008952FB7F89472
:103F90008091F3019091F401A091F501B091F601A7
:103FA0002FBF08952FB7F8946091F3017091F40139
:103FB0008091F5019091F6012FBF0895CF92DF9285
:103FC000EF92FF920F931F932FB7F8944091F30154
:103FD0005091F4016091F5017091F6012FBF6A01D3
:103FE0007B01EE24FF248C0120E030E0C016D106D6
:103FF000E206F30610F4415051099A01281B390BCF
:10400000C9011F910F91FF90EF90DF90CF9008951D
:104010001F920F920FB60F9211248F939F93AF931D
:10402000BF938091F3019091F401A091F501B091BB
:10403000F6010196A11DB11D8093F3019093F40147
:10404000A093F501B093F601BF91AF919F918F912D
:104050000F900FBE0F901F9018950E94C80FF894F4
:104060002FEF87EA91E6215080409040E1F700C0B1
:10407000000087E090EBDC01809310029093110226
:10408000A0931202B09313029CE088E10FB6F8945B
:10409000A895809360000FBE90936000FFCF8D3B8A
:1040A00050F4883A70F5853A18F58430F8F4813088
:1040B00009F46CC068C0883E98F4803EB8F48F3B29
:1040C00009F061C00E94D6182FEF80E792E02150DE
:1040D00080409040E1F700C000000E942D2053C0B6
:1040E000803F08F450C090E09065089590E00895F6
:1040F000853A09F44EC0863A09F44EC083E890E44C
:104100000895883A09F44BC0893A09F44BC08A3AB9
:1041100009F44BC08B3A09F44BC08C3A09F44BC0FC
:104120008D3A09F44BC08E3A09F44BC08F3A09F42A
:104130004BC0813B09F44BC0803B09F44BC0823B30
:1041400009F44BC0833B09F44BC0843B09F44BC0DA
:10415000853B09F44BC0863B09F44BC0873B09F40F
:104160004BC0883B09F44BC0893B09F44BC08A3BE8
:1041700009F44BC08B3B09F44BC08C3B09F44BC09A
:1041800080E094E4089580E090E0089581E090E07C
:10419000089581E890E4089582E890E4089582EE1D
:1041A00094E4089589EE94E408958AEE94E40895E1
:1041B00085EB94E4089586EB94E4089583EB94E40E
:1041C000089584EB94E4089587EB94E408958CECCF
:1041D00094E408958DEC94E4089583E895E40895BB
:1041E0008AE895E4089582E995E4089584E995E4E0
:1041F000089581E296E4089583E296E4089584E2C6
:1042000096E4089585E296E4089586E296E408959A
:1042100087E296E408958AE296E408950E94990858
:10422000803EA8F4803C00F5813309F45CC038F48A
:10423000893209F452C08A3209F45BC05FC0893305
:10424000B1F08238A1F0853309F441C057C0833EF4
:1042500041F128F4803E99F0823EB9F04FC0863E8D
:1042600031F1873E71F14AC00E94A80808959091EB
:104270000F0290FD02C091FF41C080EE3FC08091CF
:104280000F0280FFFACF89E339C080910F0282FFCD
:104290000CC080910F0284FF02C080E02FC083EE2B
:1042A0002DC080910F0282FFF4CF82EE27C0809153
:1042B0000F0283FF0AC080910F0284FDEECF87EECC
:1042C0001DC080910F0283FFF6CF86EE17C080914C
:1042D0000F0285FF06C089E211C080910F0285FFA1
:1042E000FACF85E30BC080910F0286FF06C08AE2F9
:1042F00005C080910F0286FFFACF81E30E944F2014
:10430000089508958F929F92AF92BF92EF92FF927D
:104310000F931F93CF937C01C0E08C2F0E949F0AC4
:104320004B015C0100E010E0D501C401002E04C087
:10433000B695A795979587950A94D2F780FF16C0F2
:10434000602F7C2F80E00E940E219C018E159F051E
:1043500059F0832F807E932F907C11F0803A31F4B6
:1043600030E02E153F0511F481E009C00F5F1F4FAB
:1043700001311105C9F6CF5FC63079F680E0CF91E3
:104380001F910F91FF90EF90BF90AF909F908F90F3
:104390000895CF93DF93EC018CE290E00E9482219C
:1043A000882329F0CE01DF91CF910C94822180E007
:1043B000DF91CF910895CF930E944323811102C0D2
:1043C0000E9429238FE097E00E94A807C5E6C1500C
:1043D00049F00E94EA088FE39CE90197F1F700C0D9
:1043E0000000F5CF88E097E00E94A80789E290E0FE
:1043F0000E94C92181112BC18AE290E00E94C9214B
:1044000081110E94292385E090E00E94C921811139
:104410000E942D200E944F1F0E944E238093F10185
:1044200087E090E00E94C9218823C1F18BE190E0F0
:104430000E94C921882351F08091F10181FB22273C
:1044400020F991E0922790FB81F90FC08EE090E077
:104450000E94C921882361F08091F10182FB22270B
:1044600020F991E0922790FB82F98093F10116C028
:1044700080E190E00E94C9219091F101882341F0F0
:1044800093FB222720F981E0822780FB93F904C067
:10449000892F809580FB90F99093F1018091F10133
:1044A0000E9452230E94602380930F0280EE90E0CE
:1044B0000E94C921882341F080910F02982F909586
:1044C00090FB80F980930F0289E390E00E94C9215C
:1044D000882359F080910F0281FB222720F991E077
:1044E000922790FB81F980930F0282EE90E00E9468
:1044F000C921882359F080910F0282FB222720F9DD
:1045000091E0922790FB82F980930F0286EE90E073
:104510000E94C921882359F080910F0283FB222732
:1045200020F991E0922790FB83F980930F0283EEAC
:1045300090E00E94C921882359F080910F0284FBEA
:10454000222720F991E0922790FB84F980930F02B3
:1045500085E390E00E94C921882359F080910F02E1
:1045600085FB222720F991E0922790FB85F9809323
:104570000F0281E390E00E94C921882359F08091C5
:104580000F0286FB222720F991E0922790FB86F903
:1045900080930F0281E190E00E94C921882359F0A5
:1045A00080910F0287FB222720F991E0922790FB50
:1045B00087F980930F0280910F020E9464238091FB
:1045C0000F0287FB882780F980930C0187E290E037
:1045D0000E94C921C82F8EE190E00E94C92181115B
:1045E000C2608FE190E00E94C9218111C46080E225
:1045F00090E00E94C9218111C86081E290E00E9490
:10460000C9218111C06182E290E00E94C92181111B
:10461000C06283E290E00E94C9218111C06484E2FB
:1046200090E00E94C921882311F0C06802C0CC2309
:1046300029F08C2F0E945B236C2F03C00E9457230C
:10464000682F70E080E090E0CF910C94CA1CCF916D
:1046500008956DEE7EEF80E090E00E94C42C60E053
:1046600082E090E00E94B62C60E083E090E00E943F
:10467000B62C60E084E090E00E94B62C60E085E01B
:1046800090E00C94B62C80E090E00E94B02C21E0E9
:104690008D3E9E4F09F020E0822F089582E090E049
:1046A0000C94A82C682F82E090E00C94B62C83E048
:1046B00090E00C94A82C682F83E090E00C94B62C2A
:1046C00084E090E00C94A82C682F84E090E00C9497
:1046D000B62C8091F90180FF0BC06091120185E03A
:1046E000689FB001112475956795759567952BC0E6
:1046F00081FF09C06091120185E0689FB00111241B
:104700007595679520C082FF07C06091120185E012
:10471000689FB001112417C09091FA019923D1F03C
:1047200060911101961788F72091120185E0289F6A
:1047300090011124929FA001939F500D112470E0CD
:10474000CA010E94772C6038710540F4611571052B
:1047500039F002C065E070E0862F08958FE7089574
:1047600081E008958091F90180FF08C060911001F7
:1047700070E0759567957595679521C081FF06C0B6
:104780006091100170E07595679519C082FF04C0B3
:104790006091100170E010C09091FA019923C1F06E
:1047A00060910F019617A0F780911001899FC001B9
:1047B000112470E00E94772C6038710528F461158F
:1047C000710521F0862F08958FE7089581E00895FF
:1047D00061E070E0F4CF803F21F40E94692381956D
:1047E00004C0813F29F40E9469238093FD0108954C
:1047F000823F21F40E946923819504C0833F29F4FC
:104800000E9469238093FC010895893F19F40E9456
:10481000B22305C08A3F31F40E94B2238195809370
:10482000FE0108958B3F21F40E94B223819504C0BC
:104830008C3F29F40E94B2238093FF010895843FA6
:1048400021F48091FB01816017C0853F21F48091A4
:10485000FB01826011C0863F21F48091FB018460DE
:104860000BC0873F21F48091FB01886005C0883F21
:1048700031F48091FB0180618093FB0108958D3FAD
:1048800021F48091F90181600BC08E3F21F4809169
:10489000F901826005C08F3F29F48091F90184609D
:1048A0008093F9010895803F39F48091FD0187FFDD
:1048B0006CC01092FD0169C0813F29F48091FD0117
:1048C0001816BCF362C09091FC01823F29F497FF57
:1048D0005CC01092FC0159C0833F19F41916CCF347
:1048E00054C0893F41F48091FE0118160CF04DC070
:1048F0001092FE014AC08A3F29F48091FE0187FF91
:1049000044C0F6CF8B3F39F48091FF0187FF3DC053
:104910001092FF013AC08C3F29F48091FF011816D4
:10492000BCF333C0843F21F48091FB018E7F17C01C
:10493000853F21F48091FB018D7F11C0863F21F4DA
:104940008091FB018B7F0BC0873F21F48091FB019D
:10495000877F05C0883F31F48091FB018F7E809373
:10496000FB0113C08D3F21F48091F9018E7F0BC0B4
:104970008E3F21F48091F9018D7F05C08F3F29F48E
:104980008091F9018B7F8093F9018091FC01811165
:104990000EC08091FD0181110AC08091FE0181113C
:1049A00006C08091FF01811102C01092FA010895A2
:1049B0008091F10183FF7EC08BE497E00E94A807FD
:1049C0008091FB011F928F9386E497E09F938F93D2
:1049D0000E94410884E497E00E94A8078091FC01AE
:1049E000282F082E000C330B3F938F9381E497E020
:1049F0009F938F930E9441088FE397E00E94A8073E
:104A00008091FD01282F082E000C330B3F938F93CC
:104A10008CE397E09F938F930E9441088AE397E08D
:104A20000E94A8078091FE01282F082E000C330B4E
:104A30003F938F9387E397E09F938F930E94410862
:104A400085E397E00E94A8078091FF01282F082E98
:104A5000000C330B3F938F9382E397E09F938F93E8
:104A60000E9441088FE297E00E94A8078091FA0116
:104A70001F928F938CE297E09F938F930E9441083F
:104A80008AE297E00E94A8078091F9011F928F9314
:104A900087E297E09F938F930E94410884E297E01A
:104AA0000E94A8078DB79EB74C960FB6F8949EBF8C
:104AB0000FBE8DBF8BEF91E00E940F130E94C61FA7
:104AC0009093F8018093F70108951F93CF93DF939C
:104AD0008091F7019091F8010E94DE1FAC01909146
:104AE000FA01992321F02091130130E006C02091B2
:104AF00014018AE0289F900111244217530708F4FB
:104B000085C08091FC01C091FD01D091FE01109102
:104B1000FF01811107C0C11175C0D11173C01111FE
:104B200071C074C09F3F19F09F5F9093FA011816EF
:104B300024F40E9469238093FC018091FC0187FF8B
:104B400005C00E94692381958093FC011C1624F402
:104B50000E9469238093FD018091FD0187FF05C0BC
:104B60000E94692381958093FD016091FC01662379
:104B700031F1C091FD01CC2311F1062E000C770B11
:104B8000880B990B0E94722B23E333E343E35FE32B
:104B90000E94D62B0E943A2B6093FC016C2FCC0F05
:104BA000770B880B990B0E94722B23E333E343E3CB
:104BB0005FE30E94D62B0E943A2B6093FD011D16E5
:104BC00024F40E94B2238093FE018091FE0187FFAE
:104BD00005C00E94B22381958093FE01111624F432
:104BE0000E94B2238093FF018091FF0187FF05C0DF
:104BF0000E94B22381958093FF01DF91CF911F9195
:104C00000C94D8249F3F09F08FCF97CFDF91CF919D
:104C10001F910895EBEFF1E085E0DF011D928A9589
:104C2000E9F71092FA011092F90108958EE699E0E1
:104C30000E94A8071F9281E08F931F9285E08F93B7
:104C400080E299E09F938F930E9441080F900F900C
:104C50000F900F900F900F9008958330E9F128F492
:104C6000813061F0823009F10895853009F462C025
:104C700008F449C0863009F474C008958091140185
:104C8000262F30E0280F311D2F3F310524F4680F07
:104C90006093140103C08FEF80931401809114017D
:104CA0001F928F9389E598E072C080911301262F9F
:104CB00030E0280F311D2F3F310524F4680F609339
:104CC000130103C08FEF80931301809113011F9292
:104CD0008F9387E498E05BC080911201262F30E02B
:104CE000280F311D2F3F310524F4680F6093120106
:104CF00003C08FEF80931201809112011F928F9356
:104D000084E398E044C080911101262F30E0280F01
:104D1000311D2F3F310524F4680F6093110103C04A
:104D20008FEF80931101809111011F928F938FE17A
:104D300098E02DC080911001262F30E0280F311D02
:104D40002F3F310524F4680F6093100103C08FEFEB
:104D500080931001809110011F928F9386E098E05C
:104D600016C080910F01262F30E0280F311D2F3FF4
:104D7000310524F4680F60930F0103C08FEF809317
:104D80000F0180910F011F928F938BEE97E09F93FD
:104D90008F930E9441080F900F900F900F900895ED
:104DA000833081F128F4813059F08230D1F00895B8
:104DB000853009F449C0B8F1863009F456C0089529
:104DC00080911401681720F4861B8093140102C09F
:104DD00010921401809114011F928F938CED97E033
:104DE00054C080911301681720F4861B809313012F
:104DF00002C010921301809113011F928F938AECCD
:104E000097E043C080911201681720F4861B8093BD
:104E1000120102C010921201809112011F928F9311
:104E200087EB97E032C080911101681720F4861B50
:104E30008093110102C010921101809111011F9203
:104E40008F9382EA97E021C080911001681720F4C7
:104E5000861B8093100102C01092100180911001F6
:104E60001F928F9389E897E010C080910F01681717
:104E700020F4861B80930F0102C010920F018091D5
:104E80000F011F928F938EE697E09F938F930E945E
:104E900041080F900F900F900F900895CF93C82F57
:104EA0001F928F9383E79AE09F938F930E9441080C
:104EB00081E090E0A0E0B0E0BC01CD0104C0660F4D
:104EC000771F881F991FCA95D2F70E94CA1C0F909E
:104ED0000F900F900F90CF910C94D618CF938B31E9
:104EE00009F4CBC108F049C08E3009F4DAC100F5ED
:104EF000873009F4A9C1A8F4863009F05AC280911C
:104F0000F101817F8E7F8093F10188E79AE00E9412
:104F1000A80783E99EE00E94A80781E08093010230
:104F200091C1883009F45BC08B3009F487C141C25C
:104F3000813109F426C220F4803109F4C6C139C296
:104F4000863109F4DDC1893109F033C287E09EE082
:104F50000E94A80780EF9DE00E94A80785EB9DE0D6
:104F60000E94A8078EE89DE00E94A80789E49DE0C2
:104F70000E94A8078AE19DE063C1853309F413C24A
:104F800068F4873209F40FC228F48E3108F411C294
:104F90008D510CC2893209F406C20BC2833438F435
:104FA0008A3308F002C2883309F448C102C283344C
:104FB00009F4F9C1883409F0FCC10E94D61882E8CE
:104FC0009EE00E94A8079FEF23ED80E391502040D0
:104FD0008040E1F700C000000E942D2033C187E926
:104FE0009EE00E94A80787E79CE00E94A8070E9415
:104FF00057231F928F9384E79CE09F938F930E9487
:10500000410882E79CE00E94A8070E944E23C82F17
:105010008FE59CE00E94A8071F92CF938AE59CE051
:105020009F938F930E94410888E59CE00E94A80707
:105030008EE49CE00E94A8078C2F81701F928F93B2
:105040008BE49CE09F938F930E94410889E49CE04D
:105050000E94A8078FE39CE00E94A807C1FB882755
:1050600080F91F928F938CE39CE09F938F930E9413
:1050700041088AE39CE00E94A8078EE29CE00E941F
:10508000A807C2FB882780F91F928F938BE29CE0D0
:105090009F938F930E94410889E29CE00E94A80799
:1050A00080E29CE00E94A807C3FBCC27C0F91F92B6
:1050B000CF938DE19CE09F938F930E9441088BE1F9
:1050C0009CE00E94A8070E946023C82F87E09CE014
:1050D0000E94A8071F92CF9382E09CE09F938F933A
:1050E0000E94410880E09CE00E94A80787EE9BE0B8
:1050F0000E94A8078C2F81701F928F9384EE9BE0F3
:105100009F938F930E9441088DB79EB780960FB6EC
:10511000F8949EBF0FBE8DBF82EE9BE00E94A80751
:105120008BEC9BE00E94A807C1FB882780F91F92A7
:105130008F9388EC9BE09F938F930E94410886ECAD
:105140009BE00E94A80784EB9BE00E94A807C2FB9B
:10515000882780F91F928F9381EB9BE09F938F9319
:105160000E9441088FEA9BE00E94A8078DE99BE01E
:105170000E94A807C3FB882780F91F928F938AE9B2
:105180009BE09F938F930E94410888E99BE00E94D7
:10519000A8078EE89BE00E94A807C4FB882780F937
:1051A0001F928F938BE89BE09F938F930E944108FF
:1051B00089E89BE00E94A80787E79BE00E94A80778
:1051C000C5FB882780F91F928F9384E79BE09F930C
:1051D0008F930E94410882E79BE00E94A80786E522
:1051E0009BE00E94A807C6FB882780F91F928F9337
:1051F00083E59BE09F938F930E94410881E59BE0AC
:105200000E94A80789E49BE00E94A807C7FBCC275F
:10521000C0F91F92CF9386E49BE09F938F930E94E7
:10522000410884E49BE00E94A8078DB79EB74C9686
:105230000FB6F8949EBF0FBE8DBF04C08FE99AE0F1
:105240000E94A807C1E0BAC08091F101C82FC170C7
:1052500080FF09C085E79EE00E94A8078091F101C8
:10526000817F8E7F47C089E69EE00E94A8078091DB
:10527000F10181608093F101E5CF9091F10191FB03
:10528000CC27C0F981E0C827892FC0FB81F9809322
:10529000F101CC2319F08CE59EE027C08EE49EE05E
:1052A000CFCF9091F10192FBCC27C0F981E0C827C4
:1052B000892FC0FB82F98093F101CC2319F08FE391
:1052C0009EE013C08FE29EE0BBCF9091F10193FB73
:1052D000CC27C0F981E0C827892FC0FB83F98093D0
:1052E000F101CC2351F083E29EE00E94A807809157
:1052F000F10181608093F10161C086E19EE0A0CF61
:105300008CE09DE00E94A8070E94BA121F928F9322
:1053100082EF9CE09F938F930E94410880910B0144
:105320001F928F938BED9CE09F938F930E94410877
:1053300080917E011F928F9388EC9CE09F938F93C6
:105340000E94410880910C011F928F9385EB9CE095
:105350009F938F930E9441080E94D21F9F938F9327
:105360007F936F938EE99CE09F938F930E944108F7
:105370008DB79EB746960FB6F8949EBF0FBE8DBFF1
:1053800061CF0E94D618C0910C0181E0C827C0935C
:105390000C01CC2329F084E99CE00E94A8070EC0F0
:1053A00089E89CE04DCF80E001C089530E944E27E0
:1053B00049CF87E89CE00E94A807C0E08C2FCF91DE
:1053C000089580E0089580E00895CF93C82F8091DC
:1053D0000102813071F020F0823009F44BC042C1EB
:1053E000E0910D01F0910E018081823209F03CC103
:1053F00007C0E0910D01F0910E018081823261F4CD
:105400008C2F0E94E129811104C08C2F0E946E27ED
:105410002FC081E090E02CC08C2F0E94E3298111E5
:1054200026C0C431E1F070F4CB3081F0C031D1F44A
:105430000E9416268BE69AE00E94A80782E08093DD
:10544000010215C0C93259F0C83361F488E79AE007
:105450000E94A8078FE69AE00E94A80708C0109251
:10546000010204C189E69AE00E94A807FFC081E01A
:105470008170FEC0C43228F5CE3108F0C1C0CB30F7
:10548000A1F1D0F4C73009F0D3C08EE180931401AC
:1054900082E3809313018AE08093120184E1809378
:1054A000110188E08093100188E280930F018FE062
:1054B00099E00E94A807BFC0C33149F1C431C1F0CF
:1054C000B7C0CB3409F4A9C028F4C93289F0C83375
:1054D00061F0AEC0C13509F49EC0C23509F499C06F
:1054E000CE3409F0A5C06AE09EC00E941626A3C073
:1054F00080910002882319F0109200029CC08CE178
:1055000099E00E94A80781E080930102B1C086EF74
:1055100098E00E94A80784EE98E00E94A807809176
:1055200014011F928F9381EE98E09F938F930E94B6
:1055300041088FED98E00E94A8078DEC98E00E944A
:10554000A807809113011F928F938AEC98E09F9394
:105550008F930E94410888EC98E00E94A80789EB8D
:1055600098E00E94A807809112011F928F9386EB0A
:1055700098E09F938F930E94410884EB98E00E94EB
:10558000A80783EA98E00E94A807809111011F9262
:105590008F9380EA98E09F938F930E9441088EE951
:1055A00098E00E94A80789E898E00E94A8078091E7
:1055B00010011F928F9386E898E09F938F930E942B
:1055C000410884E898E00E94A8078DE698E00E94D0
:1055D000A80780910F011F928F938AE698E09F930E
:1055E0008F930E94410888E698E00E94A8078DB733
:1055F0009EB748960FB6F8949EBF0FBE8DBF1BC0D6
:10560000CE51EC2FF0E0E25DFE4F808180930002EE
:1056100012C061E003C061E006C06AE08091000250
:105620000E942D2608C0809100020E94D02603C04F
:105630008DE099E013C080910002882369F01F92E9
:105640008F9387E099E09F938F930E9441080F907A
:105650000F900F900F9004C084E099E00E94A8077B
:1056600081E006C01092010280E002C080E000CF1D
:10567000CF9108950E94412B6894B1110C94D02BC6
:1056800008950E94B52B88F09F5798F0B92F99275D
:10569000B751B0F0E1F0660F771F881F991F1AF01D
:1056A000BA95C9F714C0B13091F00E94CF2BB1E088
:1056B00008950C94CF2B672F782F8827B85F39F087
:1056C000B93FCCF3869577956795B395D9F73EF4B6
:1056D00090958095709561957F4F8F4F9F4F08955E
:1056E000E89409C097FB3EF490958095709561957C
:1056F0007F4F8F4F9F4F9923A9F0F92F96E9BB2732
:105700009395F695879577956795B795F111F8CFAD
:10571000FAF4BB0F11F460FF1BC06F5F7F4F8F4F18
:105720009F4F16C0882311F096E911C0772321F00E
:105730009EE8872F762F05C0662371F096E8862FA6
:1057400070E060E02AF09A95660F771F881FDAF7FD
:10575000880F9695879597F9089557FD9058440FAF
:10576000551F59F05F3F71F04795880F97FB991FC0
:1057700061F09F3F79F0879508951216130614067D
:10578000551FF2CF4695F1DF08C01616170618060A
:10579000991FF1CF86957105610508940895E894E5
:1057A000BB2766277727CB0197F908950E94E92B3D
:1057B0000C945A2C0E944C2C38F00E94532C20F050
:1057C000952311F00C94432C0C94492C11240C9427
:1057D000D02B0E94AD2B70F3959FC1F3950F50E035
:1057E000551F629FF001729FBB27F00DB11D639F93
:1057F000AA27F00DB11DAA1F649F6627B00DA11D39
:10580000661F829F2227B00DA11D621F739FB00DDE
:10581000A11D621F839FA00D611D221F749F33274E
:10582000A00D611D231F849F600D211D822F762FE7
:105830006A2F11249F5750409AF0F1F088234AF0C4
:10584000EE0FFF1FBB1F661F771F881F9150504030
:10585000A9F79E3F510580F00C94432C0C94D02B5B
:105860005F3FE4F3983ED4F3869577956795B795B7
:10587000F795E7959F5FC1F7FE2B880F911D9695D1
:10588000879597F9089597F99F6780E870E060E041
:1058900008959FEF80EC089500240A9416161706C9
:1058A00018060906089500240A9412161306140611
:1058B00005060895092E0394000C11F4882352F074
:1058C000BB0F40F4BF2B11F460FF04C06F5F7F4F2C
:1058D0008F4F9F4F0895991B79E004C0991F961729
:1058E00008F0961B881F7A95C9F78095089597FB55
:1058F000072E16F4009407D077FD09D00E94942C4F
:1059000007FC05D03EF4909581959F4F08957095C2
:1059100061957F4F0895EE0FFF1F0024001C0BBE02
:105920000790F691E02D0994AA1BBB1B51E107C01B
:10593000AA1FBB1FA617B70710F0A61BB70B881F1F
:10594000991F5A95A9F780959095BC01CD010895AE
:10595000F999FECF92BD81BDF89A992780B5089537
:10596000A8E1B0E042E050E00C94CB2C262FF9994E
:10597000FECF1FBA92BD81BD20BD0FB6F894FA9A32
:10598000F99A0FBE019608950E94B62C272F0C9409
:10599000B72CDC01CB01FC01F999FECF06C0F2BDAA
:1059A000E1BDF89A319600B40D9241505040B8F7DD
:0659B0000895F894FFCFFA
:1059B60005F50AE60BC30B8F0B5B0B0101DF012814
:1059C60008140A321E404D36223967061A06E405C7
:1059D600C2058905FC0415052E0547056705010264
:0859E60003040506070809008F
:00000001FF
